{
  "_format": "hh-sol-artifact-1",
  "contractName": "PermLog",
  "sourceName": "contracts/PermLog.sol",
  "abi": [
    {
      "inputs": [],
      "stateMutability": "nonpayable",
      "type": "constructor"
    },
    {
      "inputs": [],
      "name": "AccessControlBadConfirmation",
      "type": "error"
    },
    {
      "inputs": [
        {
          "internalType": "uint48",
          "name": "schedule",
          "type": "uint48"
        }
      ],
      "name": "AccessControlEnforcedDefaultAdminDelay",
      "type": "error"
    },
    {
      "inputs": [],
      "name": "AccessControlEnforcedDefaultAdminRules",
      "type": "error"
    },
    {
      "inputs": [
        {
          "internalType": "address",
          "name": "defaultAdmin",
          "type": "address"
        }
      ],
      "name": "AccessControlInvalidDefaultAdmin",
      "type": "error"
    },
    {
      "inputs": [
        {
          "internalType": "address",
          "name": "account",
          "type": "address"
        },
        {
          "internalType": "bytes32",
          "name": "neededRole",
          "type": "bytes32"
        }
      ],
      "name": "AccessControlUnauthorizedAccount",
      "type": "error"
    },
    {
      "inputs": [
        {
          "internalType": "uint8",
          "name": "bits",
          "type": "uint8"
        },
        {
          "internalType": "uint256",
          "name": "value",
          "type": "uint256"
        }
      ],
      "name": "SafeCastOverflowedUintDowncast",
      "type": "error"
    },
    {
      "anonymous": false,
      "inputs": [],
      "name": "DefaultAdminDelayChangeCanceled",
      "type": "event"
    },
    {
      "anonymous": false,
      "inputs": [
        {
          "indexed": false,
          "internalType": "uint48",
          "name": "newDelay",
          "type": "uint48"
        },
        {
          "indexed": false,
          "internalType": "uint48",
          "name": "effectSchedule",
          "type": "uint48"
        }
      ],
      "name": "DefaultAdminDelayChangeScheduled",
      "type": "event"
    },
    {
      "anonymous": false,
      "inputs": [],
      "name": "DefaultAdminTransferCanceled",
      "type": "event"
    },
    {
      "anonymous": false,
      "inputs": [
        {
          "indexed": true,
          "internalType": "address",
          "name": "newAdmin",
          "type": "address"
        },
        {
          "indexed": false,
          "internalType": "uint48",
          "name": "acceptSchedule",
          "type": "uint48"
        }
      ],
      "name": "DefaultAdminTransferScheduled",
      "type": "event"
    },
    {
      "anonymous": false,
      "inputs": [
        {
          "indexed": true,
          "internalType": "bytes32",
          "name": "kind",
          "type": "bytes32"
        },
        {
          "indexed": true,
          "internalType": "bytes32",
          "name": "name",
          "type": "bytes32"
        },
        {
          "indexed": false,
          "internalType": "bytes",
          "name": "content",
          "type": "bytes"
        }
      ],
      "name": "Log",
      "type": "event"
    },
    {
      "anonymous": false,
      "inputs": [
        {
          "indexed": true,
          "internalType": "bytes32",
          "name": "role",
          "type": "bytes32"
        },
        {
          "indexed": true,
          "internalType": "bytes32",
          "name": "previousAdminRole",
          "type": "bytes32"
        },
        {
          "indexed": true,
          "internalType": "bytes32",
          "name": "newAdminRole",
          "type": "bytes32"
        }
      ],
      "name": "RoleAdminChanged",
      "type": "event"
    },
    {
      "anonymous": false,
      "inputs": [
        {
          "indexed": true,
          "internalType": "bytes32",
          "name": "role",
          "type": "bytes32"
        },
        {
          "indexed": true,
          "internalType": "address",
          "name": "account",
          "type": "address"
        },
        {
          "indexed": true,
          "internalType": "address",
          "name": "sender",
          "type": "address"
        }
      ],
      "name": "RoleGranted",
      "type": "event"
    },
    {
      "anonymous": false,
      "inputs": [
        {
          "indexed": true,
          "internalType": "bytes32",
          "name": "role",
          "type": "bytes32"
        },
        {
          "indexed": true,
          "internalType": "address",
          "name": "account",
          "type": "address"
        },
        {
          "indexed": true,
          "internalType": "address",
          "name": "sender",
          "type": "address"
        }
      ],
      "name": "RoleRevoked",
      "type": "event"
    },
    {
      "inputs": [],
      "name": "DEFAULT_ADMIN_ROLE",
      "outputs": [
        {
          "internalType": "bytes32",
          "name": "",
          "type": "bytes32"
        }
      ],
      "stateMutability": "view",
      "type": "function"
    },
    {
      "inputs": [],
      "name": "LOGGER_ROLE",
      "outputs": [
        {
          "internalType": "bytes32",
          "name": "",
          "type": "bytes32"
        }
      ],
      "stateMutability": "view",
      "type": "function"
    },
    {
      "inputs": [],
      "name": "acceptDefaultAdminTransfer",
      "outputs": [],
      "stateMutability": "nonpayable",
      "type": "function"
    },
    {
      "inputs": [
        {
          "internalType": "address",
          "name": "newAdmin",
          "type": "address"
        }
      ],
      "name": "beginDefaultAdminTransfer",
      "outputs": [],
      "stateMutability": "nonpayable",
      "type": "function"
    },
    {
      "inputs": [],
      "name": "cancelDefaultAdminTransfer",
      "outputs": [],
      "stateMutability": "nonpayable",
      "type": "function"
    },
    {
      "inputs": [
        {
          "internalType": "uint48",
          "name": "newDelay",
          "type": "uint48"
        }
      ],
      "name": "changeDefaultAdminDelay",
      "outputs": [],
      "stateMutability": "nonpayable",
      "type": "function"
    },
    {
      "inputs": [],
      "name": "defaultAdmin",
      "outputs": [
        {
          "internalType": "address",
          "name": "",
          "type": "address"
        }
      ],
      "stateMutability": "view",
      "type": "function"
    },
    {
      "inputs": [],
      "name": "defaultAdminDelay",
      "outputs": [
        {
          "internalType": "uint48",
          "name": "",
          "type": "uint48"
        }
      ],
      "stateMutability": "view",
      "type": "function"
    },
    {
      "inputs": [],
      "name": "defaultAdminDelayIncreaseWait",
      "outputs": [
        {
          "internalType": "uint48",
          "name": "",
          "type": "uint48"
        }
      ],
      "stateMutability": "view",
      "type": "function"
    },
    {
      "inputs": [
        {
          "internalType": "bytes32",
          "name": "role",
          "type": "bytes32"
        }
      ],
      "name": "getRoleAdmin",
      "outputs": [
        {
          "internalType": "bytes32",
          "name": "",
          "type": "bytes32"
        }
      ],
      "stateMutability": "view",
      "type": "function"
    },
    {
      "inputs": [
        {
          "internalType": "bytes32",
          "name": "role",
          "type": "bytes32"
        },
        {
          "internalType": "address",
          "name": "account",
          "type": "address"
        }
      ],
      "name": "grantRole",
      "outputs": [],
      "stateMutability": "nonpayable",
      "type": "function"
    },
    {
      "inputs": [
        {
          "internalType": "bytes32",
          "name": "role",
          "type": "bytes32"
        },
        {
          "internalType": "address",
          "name": "account",
          "type": "address"
        }
      ],
      "name": "hasRole",
      "outputs": [
        {
          "internalType": "bool",
          "name": "",
          "type": "bool"
        }
      ],
      "stateMutability": "view",
      "type": "function"
    },
    {
      "inputs": [
        {
          "internalType": "bytes32",
          "name": "kind",
          "type": "bytes32"
        },
        {
          "internalType": "bytes32",
          "name": "name",
          "type": "bytes32"
        },
        {
          "internalType": "bytes",
          "name": "content",
          "type": "bytes"
        }
      ],
      "name": "log",
      "outputs": [],
      "stateMutability": "nonpayable",
      "type": "function"
    },
    {
      "inputs": [],
      "name": "owner",
      "outputs": [
        {
          "internalType": "address",
          "name": "",
          "type": "address"
        }
      ],
      "stateMutability": "view",
      "type": "function"
    },
    {
      "inputs": [],
      "name": "pendingDefaultAdmin",
      "outputs": [
        {
          "internalType": "address",
          "name": "newAdmin",
          "type": "address"
        },
        {
          "internalType": "uint48",
          "name": "schedule",
          "type": "uint48"
        }
      ],
      "stateMutability": "view",
      "type": "function"
    },
    {
      "inputs": [],
      "name": "pendingDefaultAdminDelay",
      "outputs": [
        {
          "internalType": "uint48",
          "name": "newDelay",
          "type": "uint48"
        },
        {
          "internalType": "uint48",
          "name": "schedule",
          "type": "uint48"
        }
      ],
      "stateMutability": "view",
      "type": "function"
    },
    {
      "inputs": [
        {
          "internalType": "bytes32",
          "name": "role",
          "type": "bytes32"
        },
        {
          "internalType": "address",
          "name": "account",
          "type": "address"
        }
      ],
      "name": "renounceRole",
      "outputs": [],
      "stateMutability": "nonpayable",
      "type": "function"
    },
    {
      "inputs": [
        {
          "internalType": "bytes32",
          "name": "role",
          "type": "bytes32"
        },
        {
          "internalType": "address",
          "name": "account",
          "type": "address"
        }
      ],
      "name": "revokeRole",
      "outputs": [],
      "stateMutability": "nonpayable",
      "type": "function"
    },
    {
      "inputs": [],
      "name": "rollbackDefaultAdminDelay",
      "outputs": [],
      "stateMutability": "nonpayable",
      "type": "function"
    },
    {
      "inputs": [
        {
          "internalType": "bytes4",
          "name": "interfaceId",
          "type": "bytes4"
        }
      ],
      "name": "supportsInterface",
      "outputs": [
        {
          "internalType": "bool",
          "name": "",
          "type": "bool"
        }
      ],
      "stateMutability": "view",
      "type": "function"
    }
  ],
  "bytecode": "0x608060405234801561001057600080fd5b506203f480338061003b57604051636116401160e11b81526000600482015260240160405180910390fd5b600180546001600160d01b0316600160d01b65ffffffffffff85160217905561006560008261009e565b5050506100987f566c814873eed56a69b28c40ab27cc2cb150d74068bae3e884ccd44f8de60f8a3361009e60201b60201c565b506101b9565b6000826100fc5760006100b96002546001600160a01b031690565b6001600160a01b0316146100e057604051631fe1e13d60e11b815260040160405180910390fd5b600280546001600160a01b0319166001600160a01b0384161790555b610106838361010f565b90505b92915050565b6000828152602081815260408083206001600160a01b038516845290915281205460ff166101b1576000838152602081815260408083206001600160a01b03861684529091529020805460ff191660011790556101693390565b6001600160a01b0316826001600160a01b0316847f2f8788117e7eff1d82e926ec794901d17c78024a50270940304540a733656f0d60405160405180910390a4506001610109565b506000610109565b610ee780620001c96000396000f3fe608060405234801561001057600080fd5b506004361061012c5760003560e01c80638da5cb5b116100ad578063cefc142911610071578063cefc14291461029a578063cf6eefb7146102a2578063d547741f146102d0578063d602b9fd146102e3578063e2ed58bd146102eb57600080fd5b80638da5cb5b1461024857806391d1485414610250578063a1eda53c14610263578063a217fddf1461028a578063cc8463c81461029257600080fd5b806336568abe116100f457806336568abe146101c3578063634e93da146101d6578063649a5ec7146101e95780637bf0fbde146101fc57806384ef8ffc1461022357600080fd5b806301ffc9a714610131578063022d63fb146101595780630aa6220b14610175578063248a9ca31461017f5780632f2ff15d146101b0575b600080fd5b61014461013f366004610c5f565b6102fe565b60405190151581526020015b60405180910390f35b620697805b60405165ffffffffffff9091168152602001610150565b61017d61030f565b005b6101a261018d366004610c89565b60009081526020819052604090206001015490565b604051908152602001610150565b61017d6101be366004610cbe565b610325565b61017d6101d1366004610cbe565b610351565b61017d6101e4366004610cea565b6103fd565b61017d6101f7366004610d05565b610411565b6101a27f566c814873eed56a69b28c40ab27cc2cb150d74068bae3e884ccd44f8de60f8a81565b6002546001600160a01b03165b6040516001600160a01b039091168152602001610150565b610230610425565b61014461025e366004610cbe565b61043e565b61026b610467565b6040805165ffffffffffff938416815292909116602083015201610150565b6101a2600081565b61015e6104bb565b61017d61051a565b6102aa61055a565b604080516001600160a01b03909316835265ffffffffffff909116602083015201610150565b61017d6102de366004610cbe565b61057b565b61017d6105a3565b61017d6102f9366004610d43565b6105b6565b6000610309826105f1565b92915050565b600061031a81610616565b610322610620565b50565b8161034357604051631fe1e13d60e11b815260040160405180910390fd5b61034d828261062d565b5050565b8115801561036c57506002546001600160a01b038281169116145b156103f35760008061037c61055a565b90925090506001600160a01b03821615158061039e575065ffffffffffff8116155b806103b157504265ffffffffffff821610155b156103de576040516319ca5ebb60e01b815265ffffffffffff821660048201526024015b60405180910390fd5b50506001805465ffffffffffff60a01b191690555b61034d8282610652565b600061040881610616565b61034d8261068a565b600061041c81610616565b61034d826106fd565b60006104396002546001600160a01b031690565b905090565b6000918252602082815260408084206001600160a01b0393909316845291905290205460ff1690565b600254600090600160d01b900465ffffffffffff16801515801561049357504265ffffffffffff821610155b61049f576000806104b3565b600254600160a01b900465ffffffffffff16815b915091509091565b600254600090600160d01b900465ffffffffffff1680151580156104e657504265ffffffffffff8216105b61050157600154600160d01b900465ffffffffffff16610514565b600254600160a01b900465ffffffffffff165b91505090565b600061052461055a565b509050336001600160a01b0382161461055257604051636116401160e11b81523360048201526024016103d5565b61032261076d565b6001546001600160a01b03811691600160a01b90910465ffffffffffff1690565b8161059957604051631fe1e13d60e11b815260040160405180910390fd5b61034d8282610806565b60006105ae81610616565b61032261082b565b7f566c814873eed56a69b28c40ab27cc2cb150d74068bae3e884ccd44f8de60f8a6105e081610616565b6105eb848484610836565b50505050565b60006001600160e01b031982166318a4c3c360e11b1480610309575061030982610874565b61032281336108a9565b61062b6000806108e2565b565b60008281526020819052604090206001015461064881610616565b6105eb83836109a2565b6001600160a01b038116331461067b5760405163334bd91960e11b815260040160405180910390fd5b6106858282610a11565b505050565b60006106946104bb565b61069d42610a4e565b6106a79190610e1d565b90506106b38282610a85565b60405165ffffffffffff821681526001600160a01b038316907f3377dc44241e779dd06afab5b788a35ca5f3b778836e2990bdb26a2a4b2e5ed69060200160405180910390a25050565b600061070882610b04565b61071142610a4e565b61071b9190610e1d565b905061072782826108e2565b6040805165ffffffffffff8085168252831660208201527ff1038c18cf84a56e432fdbfaf746924b7ea511dfe03a6506a0ceba4888788d9b910160405180910390a15050565b60008061077861055a565b9150915061078d8165ffffffffffff16151590565b15806107a157504265ffffffffffff821610155b156107c9576040516319ca5ebb60e01b815265ffffffffffff821660048201526024016103d5565b6107e560006107e06002546001600160a01b031690565b610a11565b506107f16000836109a2565b5050600180546001600160d01b031916905550565b60008281526020819052604090206001015461082181610616565b6105eb8383610a11565b61062b600080610a85565b81837f6b73cbe7ab5707849952e93997bf0296215421dd1853d91220be3e706b5ffe25836040516108679190610e43565b60405180910390a3505050565b60006001600160e01b03198216637965db0b60e01b148061030957506301ffc9a760e01b6001600160e01b0319831614610309565b6108b3828261043e565b61034d5760405163e2517d3f60e01b81526001600160a01b0382166004820152602481018390526044016103d5565b600254600160d01b900465ffffffffffff168015610965574265ffffffffffff8216101561093b57600254600180546001600160d01b0316600160a01b90920465ffffffffffff16600160d01b02919091179055610965565b6040517f2b1fa2edafe6f7b9e97c1a9e0c3660e645beb2dcaa2d45bdbf9beaf5472e1ec590600090a15b50600280546001600160a01b0316600160a01b65ffffffffffff948516026001600160d01b031617600160d01b9290931691909102919091179055565b600082610a005760006109bd6002546001600160a01b031690565b6001600160a01b0316146109e457604051631fe1e13d60e11b815260040160405180910390fd5b600280546001600160a01b0319166001600160a01b0384161790555b610a0a8383610b4c565b9392505050565b600082158015610a2e57506002546001600160a01b038381169116145b15610a4457600280546001600160a01b03191690555b610a0a8383610bde565b600065ffffffffffff821115610a81576040516306dfcc6560e41b815260306004820152602481018390526044016103d5565b5090565b6000610a8f61055a565b6001805465ffffffffffff8616600160a01b026001600160d01b03199091166001600160a01b038816171790559150610ad190508165ffffffffffff16151590565b15610685576040517f8886ebfc4259abdbc16601dd8fb5678e54878f47b3c34836cfc51154a960510990600090a1505050565b600080610b0f6104bb565b90508065ffffffffffff168365ffffffffffff1611610b3757610b328382610e92565b610a0a565b610a0a65ffffffffffff841662069780610c49565b6000610b58838361043e565b610bd6576000838152602081815260408083206001600160a01b03861684529091529020805460ff19166001179055610b8e3390565b6001600160a01b0316826001600160a01b0316847f2f8788117e7eff1d82e926ec794901d17c78024a50270940304540a733656f0d60405160405180910390a4506001610309565b506000610309565b6000610bea838361043e565b15610bd6576000838152602081815260408083206001600160a01b0386168085529252808320805460ff1916905551339286917ff6391f5c32d9c69d2a47ea670b442974b53935d1edc7fd64eb21e047a839171b9190a4506001610309565b6000818310610c585781610a0a565b5090919050565b600060208284031215610c7157600080fd5b81356001600160e01b031981168114610a0a57600080fd5b600060208284031215610c9b57600080fd5b5035919050565b80356001600160a01b0381168114610cb957600080fd5b919050565b60008060408385031215610cd157600080fd5b82359150610ce160208401610ca2565b90509250929050565b600060208284031215610cfc57600080fd5b610a0a82610ca2565b600060208284031215610d1757600080fd5b813565ffffffffffff81168114610a0a57600080fd5b634e487b7160e01b600052604160045260246000fd5b600080600060608486031215610d5857600080fd5b8335925060208401359150604084013567ffffffffffffffff80821115610d7e57600080fd5b818601915086601f830112610d9257600080fd5b813581811115610da457610da4610d2d565b604051601f8201601f19908116603f01168101908382118183101715610dcc57610dcc610d2d565b81604052828152896020848701011115610de557600080fd5b8260208601602083013760006020848301015280955050505050509250925092565b634e487b7160e01b600052601160045260246000fd5b65ffffffffffff818116838216019080821115610e3c57610e3c610e07565b5092915050565b60006020808352835180602085015260005b81811015610e7157858101830151858201604001528201610e55565b506000604082860101526040601f19601f8301168501019250505092915050565b65ffffffffffff828116828216039080821115610e3c57610e3c610e0756fea26469706673582212202ee296928703e732f8f224d841aec2edcbc268b2eae330ad4dba1b8f6314096c64736f6c63430008180033",
  "linkReferences": {},
  "deployedLinkReferences": {}
}